{
  "contractName": "SultanChain",
  "abi": [
    {
      "constant": true,
      "inputs": [],
      "name": "name",
      "outputs": [
        {
          "name": "",
          "type": "string"
        }
      ],
      "payable": false,
      "stateMutability": "view",
      "type": "function"
    },
    {
      "constant": true,
      "inputs": [],
      "name": "totalSupply",
      "outputs": [
        {
          "name": "",
          "type": "uint256"
        }
      ],
      "payable": false,
      "stateMutability": "view",
      "type": "function"
    },
    {
      "constant": true,
      "inputs": [],
      "name": "deadline",
      "outputs": [
        {
          "name": "",
          "type": "uint256"
        }
      ],
      "payable": false,
      "stateMutability": "view",
      "type": "function"
    },
    {
      "constant": true,
      "inputs": [],
      "name": "decimals",
      "outputs": [
        {
          "name": "",
          "type": "uint8"
        }
      ],
      "payable": false,
      "stateMutability": "view",
      "type": "function"
    },
    {
      "constant": true,
      "inputs": [],
      "name": "round2",
      "outputs": [
        {
          "name": "",
          "type": "uint256"
        }
      ],
      "payable": false,
      "stateMutability": "view",
      "type": "function"
    },
    {
      "constant": true,
      "inputs": [],
      "name": "unlockDate",
      "outputs": [
        {
          "name": "",
          "type": "uint256"
        }
      ],
      "payable": false,
      "stateMutability": "view",
      "type": "function"
    },
    {
      "constant": true,
      "inputs": [],
      "name": "requestMinimum",
      "outputs": [
        {
          "name": "",
          "type": "uint256"
        }
      ],
      "payable": false,
      "stateMutability": "view",
      "type": "function"
    },
    {
      "constant": true,
      "inputs": [],
      "name": "round1",
      "outputs": [
        {
          "name": "",
          "type": "uint256"
        }
      ],
      "payable": false,
      "stateMutability": "view",
      "type": "function"
    },
    {
      "constant": true,
      "inputs": [],
      "name": "symbol",
      "outputs": [
        {
          "name": "",
          "type": "string"
        }
      ],
      "payable": false,
      "stateMutability": "view",
      "type": "function"
    },
    {
      "constant": true,
      "inputs": [],
      "name": "targetAirdrop",
      "outputs": [
        {
          "name": "",
          "type": "uint256"
        }
      ],
      "payable": false,
      "stateMutability": "view",
      "type": "function"
    },
    {
      "constant": true,
      "inputs": [
        {
          "name": "",
          "type": "address"
        }
      ],
      "name": "frozenAccount",
      "outputs": [
        {
          "name": "",
          "type": "bool"
        }
      ],
      "payable": false,
      "stateMutability": "view",
      "type": "function"
    },
    {
      "constant": true,
      "inputs": [
        {
          "name": "",
          "type": "address"
        }
      ],
      "name": "Claimed",
      "outputs": [
        {
          "name": "",
          "type": "bool"
        }
      ],
      "payable": false,
      "stateMutability": "view",
      "type": "function"
    },
    {
      "constant": true,
      "inputs": [
        {
          "name": "",
          "type": "uint256"
        }
      ],
      "name": "receivers",
      "outputs": [
        {
          "name": "",
          "type": "address"
        }
      ],
      "payable": false,
      "stateMutability": "view",
      "type": "function"
    },
    {
      "constant": true,
      "inputs": [],
      "name": "distributionFinished",
      "outputs": [
        {
          "name": "",
          "type": "bool"
        }
      ],
      "payable": false,
      "stateMutability": "view",
      "type": "function"
    },
    {
      "constant": true,
      "inputs": [],
      "name": "basePercent",
      "outputs": [
        {
          "name": "",
          "type": "uint256"
        }
      ],
      "payable": false,
      "stateMutability": "view",
      "type": "function"
    },
    {
      "constant": true,
      "inputs": [],
      "name": "tokensPerEth",
      "outputs": [
        {
          "name": "",
          "type": "uint256"
        }
      ],
      "payable": false,
      "stateMutability": "view",
      "type": "function"
    },
    {
      "constant": true,
      "inputs": [],
      "name": "progressAirdrop",
      "outputs": [
        {
          "name": "",
          "type": "uint256"
        }
      ],
      "payable": false,
      "stateMutability": "view",
      "type": "function"
    },
    {
      "constant": true,
      "inputs": [],
      "name": "totalDistributed",
      "outputs": [
        {
          "name": "",
          "type": "uint256"
        }
      ],
      "payable": false,
      "stateMutability": "view",
      "type": "function"
    },
    {
      "inputs": [],
      "payable": true,
      "stateMutability": "payable",
      "type": "constructor"
    },
    {
      "payable": true,
      "stateMutability": "payable",
      "type": "fallback"
    },
    {
      "anonymous": false,
      "inputs": [
        {
          "indexed": false,
          "name": "target",
          "type": "address"
        },
        {
          "indexed": false,
          "name": "frozen",
          "type": "bool"
        }
      ],
      "name": "FundsFrozen",
      "type": "event"
    },
    {
      "anonymous": false,
      "inputs": [],
      "name": "AccountFrozenError",
      "type": "event"
    },
    {
      "anonymous": false,
      "inputs": [
        {
          "indexed": false,
          "name": "target",
          "type": "address"
        },
        {
          "indexed": false,
          "name": "amount",
          "type": "uint256"
        }
      ],
      "name": "Refund",
      "type": "event"
    },
    {
      "anonymous": false,
      "inputs": [
        {
          "indexed": true,
          "name": "_from",
          "type": "address"
        },
        {
          "indexed": true,
          "name": "_to",
          "type": "address"
        },
        {
          "indexed": false,
          "name": "_value",
          "type": "uint256"
        }
      ],
      "name": "Transfer",
      "type": "event"
    },
    {
      "anonymous": false,
      "inputs": [
        {
          "indexed": true,
          "name": "_owner",
          "type": "address"
        },
        {
          "indexed": true,
          "name": "_spender",
          "type": "address"
        },
        {
          "indexed": false,
          "name": "_value",
          "type": "uint256"
        }
      ],
      "name": "Approval",
      "type": "event"
    },
    {
      "anonymous": false,
      "inputs": [
        {
          "indexed": true,
          "name": "to",
          "type": "address"
        },
        {
          "indexed": false,
          "name": "amount",
          "type": "uint256"
        }
      ],
      "name": "Distr",
      "type": "event"
    },
    {
      "anonymous": false,
      "inputs": [],
      "name": "DistrFinished",
      "type": "event"
    },
    {
      "anonymous": false,
      "inputs": [
        {
          "indexed": true,
          "name": "_owner",
          "type": "address"
        },
        {
          "indexed": false,
          "name": "_amount",
          "type": "uint256"
        },
        {
          "indexed": false,
          "name": "_balance",
          "type": "uint256"
        }
      ],
      "name": "Airdrop",
      "type": "event"
    },
    {
      "anonymous": false,
      "inputs": [
        {
          "indexed": false,
          "name": "_tokensPerEth",
          "type": "uint256"
        }
      ],
      "name": "TokensPerEthUpdated",
      "type": "event"
    },
    {
      "anonymous": false,
      "inputs": [
        {
          "indexed": true,
          "name": "burner",
          "type": "address"
        },
        {
          "indexed": false,
          "name": "value",
          "type": "uint256"
        }
      ],
      "name": "Burn",
      "type": "event"
    },
    {
      "anonymous": false,
      "inputs": [
        {
          "indexed": false,
          "name": "value",
          "type": "uint256"
        }
      ],
      "name": "Add",
      "type": "event"
    },
    {
      "constant": false,
      "inputs": [
        {
          "name": "newOwner",
          "type": "address"
        }
      ],
      "name": "transferOwnership",
      "outputs": [],
      "payable": false,
      "stateMutability": "nonpayable",
      "type": "function"
    },
    {
      "constant": false,
      "inputs": [],
      "name": "finishDistribution",
      "outputs": [
        {
          "name": "",
          "type": "bool"
        }
      ],
      "payable": false,
      "stateMutability": "nonpayable",
      "type": "function"
    },
    {
      "constant": false,
      "inputs": [
        {
          "name": "_participant",
          "type": "address"
        },
        {
          "name": "_amount",
          "type": "uint256"
        }
      ],
      "name": "DistributeAirdrop",
      "outputs": [],
      "payable": false,
      "stateMutability": "nonpayable",
      "type": "function"
    },
    {
      "constant": false,
      "inputs": [
        {
          "name": "_addresses",
          "type": "address[]"
        },
        {
          "name": "_amount",
          "type": "uint256"
        }
      ],
      "name": "DistributeAirdropMultiple",
      "outputs": [],
      "payable": false,
      "stateMutability": "nonpayable",
      "type": "function"
    },
    {
      "constant": false,
      "inputs": [
        {
          "name": "_tokensPerEth",
          "type": "uint256"
        }
      ],
      "name": "updateTokensPerEth",
      "outputs": [],
      "payable": false,
      "stateMutability": "nonpayable",
      "type": "function"
    },
    {
      "constant": false,
      "inputs": [],
      "name": "getTokens",
      "outputs": [],
      "payable": true,
      "stateMutability": "payable",
      "type": "function"
    },
    {
      "constant": true,
      "inputs": [
        {
          "name": "_owner",
          "type": "address"
        }
      ],
      "name": "balanceOf",
      "outputs": [
        {
          "name": "",
          "type": "uint256"
        }
      ],
      "payable": false,
      "stateMutability": "view",
      "type": "function"
    },
    {
      "constant": false,
      "inputs": [
        {
          "name": "_to",
          "type": "address"
        },
        {
          "name": "_amount",
          "type": "uint256"
        }
      ],
      "name": "transfer",
      "outputs": [
        {
          "name": "success",
          "type": "bool"
        }
      ],
      "payable": false,
      "stateMutability": "nonpayable",
      "type": "function"
    },
    {
      "constant": false,
      "inputs": [
        {
          "name": "from",
          "type": "address"
        },
        {
          "name": "to",
          "type": "address"
        },
        {
          "name": "value",
          "type": "uint256"
        }
      ],
      "name": "transferFrom",
      "outputs": [
        {
          "name": "",
          "type": "bool"
        }
      ],
      "payable": false,
      "stateMutability": "nonpayable",
      "type": "function"
    },
    {
      "constant": false,
      "inputs": [
        {
          "name": "_spender",
          "type": "address"
        },
        {
          "name": "_value",
          "type": "uint256"
        }
      ],
      "name": "approve",
      "outputs": [
        {
          "name": "success",
          "type": "bool"
        }
      ],
      "payable": false,
      "stateMutability": "nonpayable",
      "type": "function"
    },
    {
      "constant": true,
      "inputs": [
        {
          "name": "_owner",
          "type": "address"
        },
        {
          "name": "_spender",
          "type": "address"
        }
      ],
      "name": "allowance",
      "outputs": [
        {
          "name": "",
          "type": "uint256"
        }
      ],
      "payable": false,
      "stateMutability": "view",
      "type": "function"
    },
    {
      "constant": true,
      "inputs": [
        {
          "name": "tokenAddress",
          "type": "address"
        },
        {
          "name": "who",
          "type": "address"
        }
      ],
      "name": "getTokenBalance",
      "outputs": [
        {
          "name": "",
          "type": "uint256"
        }
      ],
      "payable": false,
      "stateMutability": "pure",
      "type": "function"
    },
    {
      "constant": false,
      "inputs": [
        {
          "name": "amount",
          "type": "uint256"
        }
      ],
      "name": "burn",
      "outputs": [],
      "payable": false,
      "stateMutability": "nonpayable",
      "type": "function"
    },
    {
      "constant": false,
      "inputs": [
        {
          "name": "account",
          "type": "address"
        },
        {
          "name": "amount",
          "type": "uint256"
        }
      ],
      "name": "burnFrom",
      "outputs": [],
      "payable": false,
      "stateMutability": "nonpayable",
      "type": "function"
    },
    {
      "constant": true,
      "inputs": [
        {
          "name": "value",
          "type": "uint256"
        }
      ],
      "name": "findOnePercent",
      "outputs": [
        {
          "name": "",
          "type": "uint256"
        }
      ],
      "payable": false,
      "stateMutability": "view",
      "type": "function"
    },
    {
      "constant": false,
      "inputs": [
        {
          "name": "spender",
          "type": "address"
        },
        {
          "name": "addedValue",
          "type": "uint256"
        }
      ],
      "name": "increaseAllowance",
      "outputs": [
        {
          "name": "",
          "type": "bool"
        }
      ],
      "payable": false,
      "stateMutability": "nonpayable",
      "type": "function"
    },
    {
      "constant": false,
      "inputs": [
        {
          "name": "spender",
          "type": "address"
        },
        {
          "name": "subtractedValue",
          "type": "uint256"
        }
      ],
      "name": "decreaseAllowance",
      "outputs": [
        {
          "name": "",
          "type": "bool"
        }
      ],
      "payable": false,
      "stateMutability": "nonpayable",
      "type": "function"
    },
    {
      "constant": false,
      "inputs": [
        {
          "name": "_to",
          "type": "address"
        },
        {
          "name": "_value",
          "type": "uint256"
        }
      ],
      "name": "refund",
      "outputs": [
        {
          "name": "",
          "type": "bool"
        }
      ],
      "payable": true,
      "stateMutability": "payable",
      "type": "function"
    },
    {
      "constant": true,
      "inputs": [],
      "name": "getAccountList",
      "outputs": [
        {
          "name": "",
          "type": "address[]"
        }
      ],
      "payable": false,
      "stateMutability": "view",
      "type": "function"
    },
    {
      "constant": false,
      "inputs": [
        {
          "name": "target",
          "type": "address"
        },
        {
          "name": "freeze",
          "type": "bool"
        }
      ],
      "name": "changeFreezeStatus",
      "outputs": [],
      "payable": false,
      "stateMutability": "nonpayable",
      "type": "function"
    },
    {
      "constant": false,
      "inputs": [
        {
          "name": "_tokenContract",
          "type": "address"
        }
      ],
      "name": "withdrawForeignTokens",
      "outputs": [
        {
          "name": "",
          "type": "bool"
        }
      ],
      "payable": false,
      "stateMutability": "nonpayable",
      "type": "function"
    }
  ],
  "bytecode": "0x608060405233600260016101000a81548173ffffffffffffffffffffffffffffffffffffffff021916908373ffffffffffffffffffffffffffffffffffffffff1602179055506064600a55624f1a004201600b55624f1a004201600c55624f1a004201600d556a05ca4ec2a79a7f67000000600e55683635c9adc5dea00000601055620186a0601155600060125573431e5f0c520ad95ccd7c1063faa088732ba059f6601460006101000a81548173ffffffffffffffffffffffffffffffffffffffff021916908373ffffffffffffffffffffffffffffffffffffffff1602179055507328c35c792b78e46d7d12cae17d4a4d1a30c36ff1601560006101000a81548173ffffffffffffffffffffffffffffffffffffffff021916908373ffffffffffffffffffffffffffffffffffffffff1602179055507391dc5b87a10cdcd37f707dfc13918da991d7a37b601660006101000a81548173ffffffffffffffffffffffffffffffffffffffff021916908373ffffffffffffffffffffffffffffffffffffffff16021790555073ea110053959380df3a91b97c57d54c976a210b3b601760006101000a81548173ffffffffffffffffffffffffffffffffffffffff021916908373ffffffffffffffffffffffffffffffffffffffff16021790555073c1ae350ae6ffe65ce10756184fa1cded701de1ba601860006101000a81548173ffffffffffffffffffffffffffffffffffffffff021916908373ffffffffffffffffffffffffffffffffffffffff160217905550737b88d2a62682749919e1e0401200139624cc5a82601960006101000a81548173ffffffffffffffffffffffffffffffffffffffff021916908373ffffffffffffffffffffffffffffffffffffffff1602179055506000601960146101000a81548160ff0219169083151502179055506040518060400160405280600c81526020017f53756c74616e20436861696e00000000000000000000000000000000000000008152506040518060400160405280600381526020017f53544e0000000000000000000000000000000000000000000000000000000000815250601282600090805190602001906200032c929190620006c2565b50816001908051906020019062000345929190620006c2565b5080600260006101000a81548160ff021916908360ff1602179055505050506001600860006101000a81548160ff02191690831515021790555033600260016101000a81548173ffffffffffffffffffffffffffffffffffffffff021916908373ffffffffffffffffffffffffffffffffffffffff1602179055506301da9c0042016013819055506200040b600260019054906101000a900473ffffffffffffffffffffffffffffffffffffffff1669d3c21bcecceda10000006200050e60201b60201c565b506200044a601460009054906101000a900473ffffffffffffffffffffffffffffffffffffffff166969e10de76676d08000006200050e60201b60201c565b5062000489601560009054906101000a900473ffffffffffffffffffffffffffffffffffffffff166969e10de76676d08000006200050e60201b60201c565b50620004c8601660009054906101000a900473ffffffffffffffffffffffffffffffffffffffff1669d3c21bcecceda10000006200050e60201b60201c565b5062000507601860009054906101000a900473ffffffffffffffffffffffffffffffffffffffff1669d3c21bcecceda10000006200050e60201b60201c565b5062000771565b6000601960149054906101000a900460ff16156200052b57600080fd5b6200054782600f54620006a760201b620032731790919060201c565b600f81905550620005a682600360008673ffffffffffffffffffffffffffffffffffffffff1673ffffffffffffffffffffffffffffffffffffffff16815260200190815260200160002054620006a760201b620032731790919060201c565b600360008573ffffffffffffffffffffffffffffffffffffffff1673ffffffffffffffffffffffffffffffffffffffff168152602001908152602001600020819055508273ffffffffffffffffffffffffffffffffffffffff167f8940c4b8e215f8822c5c8f0056c12652c746cbc57eedbd2a440b175971d47a77836040518082815260200191505060405180910390a28273ffffffffffffffffffffffffffffffffffffffff16600073ffffffffffffffffffffffffffffffffffffffff167fddf252ad1be2c89b69c2b068fc378daa952ba7f163c4a11628f55a4df523b3ef846040518082815260200191505060405180910390a36001905092915050565b6000818301905082811015620006b957fe5b80905092915050565b828054600181600116156101000203166002900490600052602060002090601f016020900481019282601f106200070557805160ff191683800117855562000736565b8280016001018555821562000736579182015b828111156200073557825182559160200191906001019062000718565b5b50905062000745919062000749565b5090565b6200076e91905b808211156200076a57600081600090555060010162000750565b5090565b90565b61368e80620007816000396000f3fe6080604052600436106102305760003560e01c80639b1cbccc1161012e578063c108d542116100ab578063dd62ed3e1161006f578063dd62ed3e14610ce1578063e58fc54c14610d66578063efca2eed14610dcf578063f2fde38b14610dfa578063f3ccb40114610e4b57610230565b8063c108d54214610bac578063c489744b14610bdb578063c5ac0ded14610c60578063cbdd69b514610c8b578063ce5d728914610cb657610230565b8063a9059cbb116100f2578063a9059cbb146109e2578063aa6ca80814610a55578063b414d4b614610a5f578063b449c24d14610ac8578063bfd772fc14610b3157610230565b80639b1cbccc1461088b5780639ea407be146108ba578063a0196219146108f5578063a457c2d714610920578063a6a686061461099357610230565b806342966c68116101bc5780637809231c116101805780637809231c146106bd57806379cc679014610718578063834b72a914610773578063836e8180146107d057806395d89b41146107fb57610230565b806342966c681461059c578063532b581c146105d757806369ac57211461060257806370a082311461062d57806374ff23241461069257610230565b80632843314e116102035780632843314e146103fb57806329dcb0cf14610467578063313ce5671461049257806339509351146104c3578063410085df1461053657610230565b806306fdde031461023a578063095ea7b3146102ca57806318160ddd1461033d57806323b872dd14610368575b610238610edb565b005b34801561024657600080fd5b5061024f6112c7565b6040518080602001828103825283818151815260200191508051906020019080838360005b8381101561028f578082015181840152602081019050610274565b50505050905090810190601f1680156102bc5780820380516001836020036101000a031916815260200191505b509250505060405180910390f35b3480156102d657600080fd5b50610323600480360360408110156102ed57600080fd5b81019080803573ffffffffffffffffffffffffffffffffffffffff16906020019092919080359060200190929190505050611369565b604051808215151515815260200191505060405180910390f35b34801561034957600080fd5b506103526114f7565b6040518082815260200191505060405180910390f35b34801561037457600080fd5b506103e16004803603606081101561038b57600080fd5b81019080803573ffffffffffffffffffffffffffffffffffffffff169060200190929190803573ffffffffffffffffffffffffffffffffffffffff169060200190929190803590602001909291905050506114fd565b604051808215151515815260200191505060405180910390f35b34801561040757600080fd5b50610410611a79565b6040518080602001828103825283818151815260200191508051906020019060200280838360005b83811015610453578082015181840152602081019050610438565b505050509050019250505060405180910390f35b34801561047357600080fd5b5061047c611b59565b6040518082815260200191505060405180910390f35b34801561049e57600080fd5b506104a7611b5f565b604051808260ff1660ff16815260200191505060405180910390f35b3480156104cf57600080fd5b5061051c600480360360408110156104e657600080fd5b81019080803573ffffffffffffffffffffffffffffffffffffffff16906020019092919080359060200190929190505050611b76565b604051808215151515815260200191505060405180910390f35b6105826004803603604081101561054c57600080fd5b81019080803573ffffffffffffffffffffffffffffffffffffffff16906020019092919080359060200190929190505050611dab565b604051808215151515815260200191505060405180910390f35b3480156105a857600080fd5b506105d5600480360360208110156105bf57600080fd5b8101908080359060200190929190505050611f1b565b005b3480156105e357600080fd5b506105ec611f28565b6040518082815260200191505060405180910390f35b34801561060e57600080fd5b50610617611f2e565b6040518082815260200191505060405180910390f35b34801561063957600080fd5b5061067c6004803603602081101561065057600080fd5b81019080803573ffffffffffffffffffffffffffffffffffffffff169060200190929190505050611f34565b6040518082815260200191505060405180910390f35b34801561069e57600080fd5b506106a7611f7d565b6040518082815260200191505060405180910390f35b3480156106c957600080fd5b50610716600480360360408110156106e057600080fd5b81019080803573ffffffffffffffffffffffffffffffffffffffff16906020019092919080359060200190929190505050611f88565b005b34801561072457600080fd5b506107716004803603604081101561073b57600080fd5b81019080803573ffffffffffffffffffffffffffffffffffffffff16906020019092919080359060200190929190505050611ff0565b005b34801561077f57600080fd5b506107ce6004803603604081101561079657600080fd5b81019080803573ffffffffffffffffffffffffffffffffffffffff169060200190929190803515159060200190929190505050612196565b005b3480156107dc57600080fd5b506107e56122ba565b6040518082815260200191505060405180910390f35b34801561080757600080fd5b506108106122c0565b6040518080602001828103825283818151815260200191508051906020019080838360005b83811015610850578082015181840152602081019050610835565b50505050905090810190601f16801561087d5780820380516001836020036101000a031916815260200191505b509250505060405180910390f35b34801561089757600080fd5b506108a0612362565b604051808215151515815260200191505060405180910390f35b3480156108c657600080fd5b506108f3600480360360208110156108dd57600080fd5b8101908080359060200190929190505050612426565b005b34801561090157600080fd5b5061090a6124c1565b6040518082815260200191505060405180910390f35b34801561092c57600080fd5b506109796004803603604081101561094357600080fd5b81019080803573ffffffffffffffffffffffffffffffffffffffff169060200190929190803590602001909291905050506124c7565b604051808215151515815260200191505060405180910390f35b34801561099f57600080fd5b506109cc600480360360208110156109b657600080fd5b81019080803590602001909291905050506126fc565b6040518082815260200191505060405180910390f35b3480156109ee57600080fd5b50610a3b60048036036040811015610a0557600080fd5b81019080803573ffffffffffffffffffffffffffffffffffffffff16906020019092919080359060200190929190505050612733565b604051808215151515815260200191505060405180910390f35b610a5d610edb565b005b348015610a6b57600080fd5b50610aae60048036036020811015610a8257600080fd5b81019080803573ffffffffffffffffffffffffffffffffffffffff169060200190929190505050612b16565b604051808215151515815260200191505060405180910390f35b348015610ad457600080fd5b50610b1760048036036020811015610aeb57600080fd5b81019080803573ffffffffffffffffffffffffffffffffffffffff169060200190929190505050612b36565b604051808215151515815260200191505060405180910390f35b348015610b3d57600080fd5b50610b6a60048036036020811015610b5457600080fd5b8101908080359060200190929190505050612b56565b604051808273ffffffffffffffffffffffffffffffffffffffff1673ffffffffffffffffffffffffffffffffffffffff16815260200191505060405180910390f35b348015610bb857600080fd5b50610bc1612b92565b604051808215151515815260200191505060405180910390f35b348015610be757600080fd5b50610c4a60048036036040811015610bfe57600080fd5b81019080803573ffffffffffffffffffffffffffffffffffffffff169060200190929190803573ffffffffffffffffffffffffffffffffffffffff169060200190929190505050612ba5565b6040518082815260200191505060405180910390f35b348015610c6c57600080fd5b50610c75612c72565b6040518082815260200191505060405180910390f35b348015610c9757600080fd5b50610ca0612c78565b6040518082815260200191505060405180910390f35b348015610cc257600080fd5b50610ccb612c7e565b6040518082815260200191505060405180910390f35b348015610ced57600080fd5b50610d5060048036036040811015610d0457600080fd5b81019080803573ffffffffffffffffffffffffffffffffffffffff169060200190929190803573ffffffffffffffffffffffffffffffffffffffff169060200190929190505050612c84565b6040518082815260200191505060405180910390f35b348015610d7257600080fd5b50610db560048036036020811015610d8957600080fd5b81019080803573ffffffffffffffffffffffffffffffffffffffff169060200190929190505050612d0b565b604051808215151515815260200191505060405180910390f35b348015610ddb57600080fd5b50610de4612f15565b6040518082815260200191505060405180910390f35b348015610e0657600080fd5b50610e4960048036036020811015610e1d57600080fd5b81019080803573ffffffffffffffffffffffffffffffffffffffff169060200190929190505050612f1b565b005b348015610e5757600080fd5b50610ed960048036036040811015610e6e57600080fd5b8101908080359060200190640100000000811115610e8b57600080fd5b820183602082011115610e9d57600080fd5b80359060200191846020830284011164010000000083111715610ebf57600080fd5b909192939192939080359060200190929190505050612fee565b005b601960149054906101000a900460ff1615610ef557600080fd5b600080905060008090506000809050600067016345785d8a0000905060006706f05b59d3b2000090506000670de0b6b3a76400009050670de0b6b3a7640000610f493460105461309e90919063ffffffff16565b81610f5057fe5b049550600033905066038d7ea4c680003410158015610f705750600b5442105b8015610f7d5750600d5442105b8015610f8a5750600c5442105b1561100057833410158015610f9e57508234105b15610fb8576064600a880281610fb057fe5b049450610ffb565b823410158015610fc757508134105b15610fe15760646014880281610fd957fe5b049450610ffa565b813410610ff95760646023880281610ff557fe5b0494505b5b5b611084565b66038d7ea4c6800034101580156110185750600b5442105b80156110255750600d5442115b80156110325750600c5442105b1561107e5782341015801561104657508134105b15611060576064600288028161105857fe5b049450611079565b813410611078576064600388028161107457fe5b0494505b5b611083565b600094505b5b8487019550600087141561119d576000674563918244f40000905060001515600560008473ffffffffffffffffffffffffffffffffffffffff1673ffffffffffffffffffffffffffffffffffffffff16815260200190815260200160002060009054906101000a900460ff161515148015611103575060115460125411155b156111825761111282826130d2565b506001600560008473ffffffffffffffffffffffffffffffffffffffff1673ffffffffffffffffffffffffffffffffffffffff16815260200190815260200160002060006101000a81548160ff021916908315150217905550601260008154809291906001019190505550611197565b66038d7ea4c6800034101561119657600080fd5b5b5061122e565b6000871180156111b4575066038d7ea4c680003410155b1561121857600b5442101580156111cd5750600d544210155b80156111da5750600c5442105b156111ef576111e981886130d2565b50611213565b8334106112065761120081876130d2565b50611212565b61121081886130d2565b505b5b61122d565b66038d7ea4c6800034101561122c57600080fd5b5b5b600e54600f5410611255576001601960146101000a81548160ff0219169083151502179055505b601960009054906101000a900473ffffffffffffffffffffffffffffffffffffffff1673ffffffffffffffffffffffffffffffffffffffff166108fc349081150290604051600060405180830381858888f193505050501580156112bd573d6000803e3d6000fd5b5050505050505050565b606060008054600181600116156101000203166002900480601f01602080910402602001604051908101604052809291908181526020018280546001816001161561010002031660029004801561135f5780601f106113345761010080835404028352916020019161135f565b820191906000526020600020905b81548152906001019060200180831161134257829003601f168201915b5050505050905090565b60008082141580156113f857506000600460003373ffffffffffffffffffffffffffffffffffffffff1673ffffffffffffffffffffffffffffffffffffffff16815260200190815260200160002060008573ffffffffffffffffffffffffffffffffffffffff1673ffffffffffffffffffffffffffffffffffffffff1681526020019081526020016000205414155b1561140657600090506114f1565b81600460003373ffffffffffffffffffffffffffffffffffffffff1673ffffffffffffffffffffffffffffffffffffffff16815260200190815260200160002060008573ffffffffffffffffffffffffffffffffffffffff1673ffffffffffffffffffffffffffffffffffffffff168152602001908152602001600020819055508273ffffffffffffffffffffffffffffffffffffffff163373ffffffffffffffffffffffffffffffffffffffff167f8c5be1e5ebec7d5bd14f71427d1e84f3dd0314c0f7b2291e5b200ac8c7c3b925846040518082815260200191505060405180910390a3600190505b92915050565b600e5481565b60006060600481016000369050101561151257fe5b600360008673ffffffffffffffffffffffffffffffffffffffff1673ffffffffffffffffffffffffffffffffffffffff1681526020019081526020016000205483111561155e57600080fd5b600460008673ffffffffffffffffffffffffffffffffffffffff1673ffffffffffffffffffffffffffffffffffffffff16815260200190815260200160002060003373ffffffffffffffffffffffffffffffffffffffff1673ffffffffffffffffffffffffffffffffffffffff168152602001908152602001600020548311156115e757600080fd5b600073ffffffffffffffffffffffffffffffffffffffff168473ffffffffffffffffffffffffffffffffffffffff16141561162157600080fd5b600760008673ffffffffffffffffffffffffffffffffffffffff1673ffffffffffffffffffffffffffffffffffffffff16815260200190815260200160002060009054906101000a900460ff1680156116875750600860009054906101000a900460ff16155b156116c1577fc02b159124c14233f90ebd33bcb38d4b3ca06c37a065900c3fa421b93a6c634d60405160405180910390a160009150611a71565b60098490806001815401808255809150509060018203906000526020600020016000909192909190916101000a81548173ffffffffffffffffffffffffffffffffffffffff021916908373ffffffffffffffffffffffffffffffffffffffff1602179055505061177983600360008873ffffffffffffffffffffffffffffffffffffffff1673ffffffffffffffffffffffffffffffffffffffff1681526020019081526020016000205461325c90919063ffffffff16565b600360008773ffffffffffffffffffffffffffffffffffffffff1673ffffffffffffffffffffffffffffffffffffffff1681526020019081526020016000208190555060006117c7846126fc565b905060006117de828661325c90919063ffffffff16565b905061183281600360008973ffffffffffffffffffffffffffffffffffffffff1673ffffffffffffffffffffffffffffffffffffffff1681526020019081526020016000205461327390919063ffffffff16565b600360008873ffffffffffffffffffffffffffffffffffffffff1673ffffffffffffffffffffffffffffffffffffffff1681526020019081526020016000208190555061188a82600e5461325c90919063ffffffff16565b600e8190555061191f85600460008a73ffffffffffffffffffffffffffffffffffffffff1673ffffffffffffffffffffffffffffffffffffffff16815260200190815260200160002060003373ffffffffffffffffffffffffffffffffffffffff1673ffffffffffffffffffffffffffffffffffffffff1681526020019081526020016000205461325c90919063ffffffff16565b600460008973ffffffffffffffffffffffffffffffffffffffff1673ffffffffffffffffffffffffffffffffffffffff16815260200190815260200160002060003373ffffffffffffffffffffffffffffffffffffffff1673ffffffffffffffffffffffffffffffffffffffff168152602001908152602001600020819055508573ffffffffffffffffffffffffffffffffffffffff168773ffffffffffffffffffffffffffffffffffffffff167fddf252ad1be2c89b69c2b068fc378daa952ba7f163c4a11628f55a4df523b3ef836040518082815260200191505060405180910390a3600073ffffffffffffffffffffffffffffffffffffffff168773ffffffffffffffffffffffffffffffffffffffff167fddf252ad1be2c89b69c2b068fc378daa952ba7f163c4a11628f55a4df523b3ef846040518082815260200191505060405180910390a36001935050505b509392505050565b606080600980549050604051908082528060200260200182016040528015611ab05781602001602082028038833980820191505090505b50905060008090505b600980549050811015611b515760098181548110611ad357fe5b9060005260206000200160009054906101000a900473ffffffffffffffffffffffffffffffffffffffff16828281518110611b0a57fe5b602002602001019073ffffffffffffffffffffffffffffffffffffffff16908173ffffffffffffffffffffffffffffffffffffffff16815250508080600101915050611ab9565b508091505090565b600b5481565b6000600260009054906101000a900460ff16905090565b60008073ffffffffffffffffffffffffffffffffffffffff168373ffffffffffffffffffffffffffffffffffffffff161415611bb157600080fd5b611c4082600460003373ffffffffffffffffffffffffffffffffffffffff1673ffffffffffffffffffffffffffffffffffffffff16815260200190815260200160002060008673ffffffffffffffffffffffffffffffffffffffff1673ffffffffffffffffffffffffffffffffffffffff1681526020019081526020016000205461327390919063ffffffff16565b600460003373ffffffffffffffffffffffffffffffffffffffff1673ffffffffffffffffffffffffffffffffffffffff16815260200190815260200160002060008573ffffffffffffffffffffffffffffffffffffffff1673ffffffffffffffffffffffffffffffffffffffff168152602001908152602001600020819055508273ffffffffffffffffffffffffffffffffffffffff163373ffffffffffffffffffffffffffffffffffffffff167f8c5be1e5ebec7d5bd14f71427d1e84f3dd0314c0f7b2291e5b200ac8c7c3b925600460003373ffffffffffffffffffffffffffffffffffffffff1673ffffffffffffffffffffffffffffffffffffffff16815260200190815260200160002060008773ffffffffffffffffffffffffffffffffffffffff1673ffffffffffffffffffffffffffffffffffffffff168152602001908152602001600020546040518082815260200191505060405180910390a36001905092915050565b6000600260019054906101000a900473ffffffffffffffffffffffffffffffffffffffff1673ffffffffffffffffffffffffffffffffffffffff163373ffffffffffffffffffffffffffffffffffffffff1614611e0757600080fd5b611e3483600260019054906101000a900473ffffffffffffffffffffffffffffffffffffffff16846114fd565b611ea6576040517f08c379a00000000000000000000000000000000000000000000000000000000081526004018080602001828103825260108152602001807f5472616e73666572206661696c65642e0000000000000000000000000000000081525060200191505060405180910390fd5b7fbb28353e4598c3b9199101a66e0989549b659a59a54d2c27fbb183f1932c8e6d8383604051808373ffffffffffffffffffffffffffffffffffffffff1673ffffffffffffffffffffffffffffffffffffffff1681526020018281526020019250505060405180910390a16001905092915050565b611f25338261328d565b50565b600c5481565b60135481565b6000600360008373ffffffffffffffffffffffffffffffffffffffff1673ffffffffffffffffffffffffffffffffffffffff168152602001908152602001600020549050919050565b66038d7ea4c6800081565b600260019054906101000a900473ffffffffffffffffffffffffffffffffffffffff1673ffffffffffffffffffffffffffffffffffffffff163373ffffffffffffffffffffffffffffffffffffffff1614611fe257600080fd5b611fec8282613401565b5050565b600460008373ffffffffffffffffffffffffffffffffffffffff1673ffffffffffffffffffffffffffffffffffffffff16815260200190815260200160002060003373ffffffffffffffffffffffffffffffffffffffff1673ffffffffffffffffffffffffffffffffffffffff1681526020019081526020016000205481111561207957600080fd5b61210881600460008573ffffffffffffffffffffffffffffffffffffffff1673ffffffffffffffffffffffffffffffffffffffff16815260200190815260200160002060003373ffffffffffffffffffffffffffffffffffffffff1673ffffffffffffffffffffffffffffffffffffffff1681526020019081526020016000205461325c90919063ffffffff16565b600460008473ffffffffffffffffffffffffffffffffffffffff1673ffffffffffffffffffffffffffffffffffffffff16815260200190815260200160002060003373ffffffffffffffffffffffffffffffffffffffff1673ffffffffffffffffffffffffffffffffffffffff16815260200190815260200160002081905550612192828261328d565b5050565b600260019054906101000a900473ffffffffffffffffffffffffffffffffffffffff1673ffffffffffffffffffffffffffffffffffffffff163373ffffffffffffffffffffffffffffffffffffffff16146121f057600080fd5b80600760008473ffffffffffffffffffffffffffffffffffffffff1673ffffffffffffffffffffffffffffffffffffffff16815260200190815260200160002060006101000a81548160ff0219169083151502179055507f1d4e2025c66100dca6ec09dd6ca44b4571273e26e596d2003dfcc39afd6f98678282604051808373ffffffffffffffffffffffffffffffffffffffff1673ffffffffffffffffffffffffffffffffffffffff168152602001821515151581526020019250505060405180910390a15050565b600d5481565b606060018054600181600116156101000203166002900480601f0160208091040260200160405190810160405280929190818152602001828054600181600116156101000203166002900480156123585780601f1061232d57610100808354040283529160200191612358565b820191906000526020600020905b81548152906001019060200180831161233b57829003601f168201915b5050505050905090565b6000600260019054906101000a900473ffffffffffffffffffffffffffffffffffffffff1673ffffffffffffffffffffffffffffffffffffffff163373ffffffffffffffffffffffffffffffffffffffff16146123be57600080fd5b601960149054906101000a900460ff16156123d857600080fd5b6001601960146101000a81548160ff0219169083151502179055507f7f95d919e78bdebe8a285e6e33357c2fcb65ccf66e72d7573f9f8f6caad0c4cc60405160405180910390a16001905090565b600260019054906101000a900473ffffffffffffffffffffffffffffffffffffffff1673ffffffffffffffffffffffffffffffffffffffff163373ffffffffffffffffffffffffffffffffffffffff161461248057600080fd5b806010819055507ff7729fa834bbef70b6d3257c2317a562aa88b56c81b544814f93dc5963a2c003816040518082815260200191505060405180910390a150565b60115481565b60008073ffffffffffffffffffffffffffffffffffffffff168373ffffffffffffffffffffffffffffffffffffffff16141561250257600080fd5b61259182600460003373ffffffffffffffffffffffffffffffffffffffff1673ffffffffffffffffffffffffffffffffffffffff16815260200190815260200160002060008673ffffffffffffffffffffffffffffffffffffffff1673ffffffffffffffffffffffffffffffffffffffff1681526020019081526020016000205461325c90919063ffffffff16565b600460003373ffffffffffffffffffffffffffffffffffffffff1673ffffffffffffffffffffffffffffffffffffffff16815260200190815260200160002060008573ffffffffffffffffffffffffffffffffffffffff1673ffffffffffffffffffffffffffffffffffffffff168152602001908152602001600020819055508273ffffffffffffffffffffffffffffffffffffffff163373ffffffffffffffffffffffffffffffffffffffff167f8c5be1e5ebec7d5bd14f71427d1e84f3dd0314c0f7b2291e5b200ac8c7c3b925600460003373ffffffffffffffffffffffffffffffffffffffff1673ffffffffffffffffffffffffffffffffffffffff16815260200190815260200160002060008773ffffffffffffffffffffffffffffffffffffffff1673ffffffffffffffffffffffffffffffffffffffff168152602001908152602001600020546040518082815260200191505060405180910390a36001905092915050565b60008061272861271061271a600a548661309e90919063ffffffff16565b61364e90919063ffffffff16565b905080915050919050565b60006040600481016000369050101561274857fe5b600360003373ffffffffffffffffffffffffffffffffffffffff1673ffffffffffffffffffffffffffffffffffffffff1681526020019081526020016000205483111561279457600080fd5b600073ffffffffffffffffffffffffffffffffffffffff168473ffffffffffffffffffffffffffffffffffffffff1614156127ce57600080fd5b600760003373ffffffffffffffffffffffffffffffffffffffff1673ffffffffffffffffffffffffffffffffffffffff16815260200190815260200160002060009054906101000a900460ff1680156128345750600860009054906101000a900460ff16155b1561286e577fc02b159124c14233f90ebd33bcb38d4b3ca06c37a065900c3fa421b93a6c634d60405160405180910390a160009150612b0f565b60098490806001815401808255809150509060018203906000526020600020016000909192909190916101000a81548173ffffffffffffffffffffffffffffffffffffffff021916908373ffffffffffffffffffffffffffffffffffffffff1602179055505060006128df846126fc565b905060006128f6828661325c90919063ffffffff16565b905061294a85600360003373ffffffffffffffffffffffffffffffffffffffff1673ffffffffffffffffffffffffffffffffffffffff1681526020019081526020016000205461325c90919063ffffffff16565b600360003373ffffffffffffffffffffffffffffffffffffffff1673ffffffffffffffffffffffffffffffffffffffff168152602001908152602001600020819055506129df81600360008973ffffffffffffffffffffffffffffffffffffffff1673ffffffffffffffffffffffffffffffffffffffff1681526020019081526020016000205461327390919063ffffffff16565b600360008873ffffffffffffffffffffffffffffffffffffffff1673ffffffffffffffffffffffffffffffffffffffff16815260200190815260200160002081905550612a3782600e5461325c90919063ffffffff16565b600e819055508573ffffffffffffffffffffffffffffffffffffffff163373ffffffffffffffffffffffffffffffffffffffff167fddf252ad1be2c89b69c2b068fc378daa952ba7f163c4a11628f55a4df523b3ef836040518082815260200191505060405180910390a3600073ffffffffffffffffffffffffffffffffffffffff163373ffffffffffffffffffffffffffffffffffffffff167fddf252ad1be2c89b69c2b068fc378daa952ba7f163c4a11628f55a4df523b3ef846040518082815260200191505060405180910390a36001935050505b5092915050565b60076020528060005260406000206000915054906101000a900460ff1681565b60056020528060005260406000206000915054906101000a900460ff1681565b60098181548110612b6357fe5b906000526020600020016000915054906101000a900473ffffffffffffffffffffffffffffffffffffffff1681565b601960149054906101000a900460ff1681565b60008083905060008173ffffffffffffffffffffffffffffffffffffffff166370a08231856040518263ffffffff1660e01b8152600401808273ffffffffffffffffffffffffffffffffffffffff1673ffffffffffffffffffffffffffffffffffffffff16815260200191505060206040518083038186803b158015612c2a57600080fd5b505afa158015612c3e573d6000803e3d6000fd5b505050506040513d6020811015612c5457600080fd5b81019080805190602001909291905050509050809250505092915050565b600a5481565b60105481565b60125481565b6000600460008473ffffffffffffffffffffffffffffffffffffffff1673ffffffffffffffffffffffffffffffffffffffff16815260200190815260200160002060008373ffffffffffffffffffffffffffffffffffffffff1673ffffffffffffffffffffffffffffffffffffffff16815260200190815260200160002054905092915050565b6000600260019054906101000a900473ffffffffffffffffffffffffffffffffffffffff1673ffffffffffffffffffffffffffffffffffffffff163373ffffffffffffffffffffffffffffffffffffffff1614612d6757600080fd5b600082905060008173ffffffffffffffffffffffffffffffffffffffff166370a08231306040518263ffffffff1660e01b8152600401808273ffffffffffffffffffffffffffffffffffffffff1673ffffffffffffffffffffffffffffffffffffffff16815260200191505060206040518083038186803b158015612deb57600080fd5b505afa158015612dff573d6000803e3d6000fd5b505050506040513d6020811015612e1557600080fd5b810190808051906020019092919050505090508173ffffffffffffffffffffffffffffffffffffffff1663a9059cbb600260019054906101000a900473ffffffffffffffffffffffffffffffffffffffff16836040518363ffffffff1660e01b8152600401808373ffffffffffffffffffffffffffffffffffffffff1673ffffffffffffffffffffffffffffffffffffffff16815260200182815260200192505050602060405180830381600087803b158015612ed157600080fd5b505af1158015612ee5573d6000803e3d6000fd5b505050506040513d6020811015612efb57600080fd5b810190808051906020019092919050505092505050919050565b600f5481565b600260019054906101000a900473ffffffffffffffffffffffffffffffffffffffff1673ffffffffffffffffffffffffffffffffffffffff163373ffffffffffffffffffffffffffffffffffffffff1614612f7557600080fd5b600073ffffffffffffffffffffffffffffffffffffffff168173ffffffffffffffffffffffffffffffffffffffff1614612feb5780600260016101000a81548173ffffffffffffffffffffffffffffffffffffffff021916908373ffffffffffffffffffffffffffffffffffffffff1602179055505b50565b600260019054906101000a900473ffffffffffffffffffffffffffffffffffffffff1673ffffffffffffffffffffffffffffffffffffffff163373ffffffffffffffffffffffffffffffffffffffff161461304857600080fd5b60008090505b838390508110156130985761308b84848381811061306857fe5b9050602002013573ffffffffffffffffffffffffffffffffffffffff1683613401565b808060010191505061304e565b50505050565b6000808314156130b157600090506130cc565b8183029050818382816130c057fe5b04146130c857fe5b8090505b92915050565b6000601960149054906101000a900460ff16156130ee57600080fd5b61310382600f5461327390919063ffffffff16565b600f8190555061315b82600360008673ffffffffffffffffffffffffffffffffffffffff1673ffffffffffffffffffffffffffffffffffffffff1681526020019081526020016000205461327390919063ffffffff16565b600360008573ffffffffffffffffffffffffffffffffffffffff1673ffffffffffffffffffffffffffffffffffffffff168152602001908152602001600020819055508273ffffffffffffffffffffffffffffffffffffffff167f8940c4b8e215f8822c5c8f0056c12652c746cbc57eedbd2a440b175971d47a77836040518082815260200191505060405180910390a28273ffffffffffffffffffffffffffffffffffffffff16600073ffffffffffffffffffffffffffffffffffffffff167fddf252ad1be2c89b69c2b068fc378daa952ba7f163c4a11628f55a4df523b3ef846040518082815260200191505060405180910390a36001905092915050565b60008282111561326857fe5b818303905092915050565b600081830190508281101561328457fe5b80905092915050565b600081141561329b57600080fd5b600360008373ffffffffffffffffffffffffffffffffffffffff1673ffffffffffffffffffffffffffffffffffffffff168152602001908152602001600020548111156132e757600080fd5b6132fc81600e5461325c90919063ffffffff16565b600e8190555061335481600360008573ffffffffffffffffffffffffffffffffffffffff1673ffffffffffffffffffffffffffffffffffffffff1681526020019081526020016000205461325c90919063ffffffff16565b600360008473ffffffffffffffffffffffffffffffffffffffff1673ffffffffffffffffffffffffffffffffffffffff16815260200190815260200160002081905550600073ffffffffffffffffffffffffffffffffffffffff168273ffffffffffffffffffffffffffffffffffffffff167fddf252ad1be2c89b69c2b068fc378daa952ba7f163c4a11628f55a4df523b3ef836040518082815260200191505060405180910390a35050565b600260019054906101000a900473ffffffffffffffffffffffffffffffffffffffff1673ffffffffffffffffffffffffffffffffffffffff163373ffffffffffffffffffffffffffffffffffffffff161461345b57600080fd5b6000811161346857600080fd5b600e54600f541061347857600080fd5b6134ca81600360008573ffffffffffffffffffffffffffffffffffffffff1673ffffffffffffffffffffffffffffffffffffffff1681526020019081526020016000205461327390919063ffffffff16565b600360008473ffffffffffffffffffffffffffffffffffffffff1673ffffffffffffffffffffffffffffffffffffffff1681526020019081526020016000208190555061352281600f5461327390919063ffffffff16565b600f81905550600e54600f541061354f576001601960146101000a81548160ff0219169083151502179055505b8173ffffffffffffffffffffffffffffffffffffffff167fada993ad066837289fe186cd37227aa338d27519a8a1547472ecb9831486d27282600360008673ffffffffffffffffffffffffffffffffffffffff1673ffffffffffffffffffffffffffffffffffffffff16815260200190815260200160002054604051808381526020018281526020019250505060405180910390a28173ffffffffffffffffffffffffffffffffffffffff16600073ffffffffffffffffffffffffffffffffffffffff167fddf252ad1be2c89b69c2b068fc378daa952ba7f163c4a11628f55a4df523b3ef836040518082815260200191505060405180910390a35050565b600081838161365957fe5b0490509291505056fea165627a7a72305820196f40e3e067800d8dcd6a5d3f53f9ee892242f6f212368f023fdb52913fb4750029",
  "source": "/**\n *Submitted for verification at Etherscan.io on 2019-07-21\n*/\n\npragma solidity ^0.5.1;\n\nlibrary SafeMath {\n\n    /**\n    * @dev Multiplies two numbers, throws on overflow.\n    */\n    function mul(uint256 a, uint256 b) internal pure returns (uint256 c) {\n        if (a == 0) {\n            return 0;\n        }\n        c = a * b;\n        assert(c / a == b);\n        return c;\n    }\n\n    /**\n    * @dev Integer division of two numbers, truncating the quotient.\n    */\n    function div(uint256 a, uint256 b) internal pure returns (uint256) {\n        // assert(b > 0); // Solidity automatically throws when dividing by 0\n        // uint256 c = a / b;\n        // assert(a == b * c + a % b); // There is no case in which this doesn't hold\n        return a / b;\n    }\n\n    /**\n    * @dev Subtracts two numbers, throws on overflow (i.e. if subtrahend is greater than minuend).\n    */\n    function sub(uint256 a, uint256 b) internal pure returns (uint256) {\n        assert(b <= a);\n        return a - b;\n    }\n\n    /**\n    * @dev Adds two numbers, throws on overflow.\n    */\n    function add(uint256 a, uint256 b) internal pure returns (uint256 c) {\n        c = a + b;\n        assert(c >= a);\n        return c;\n    }\n\n    function ceil(uint256 a, uint256 m) internal pure returns (uint256) {\n        uint256 c = add(a,m);\n        uint256 d = sub(c,1);\n        return mul(div(d,m),m);\n    }\n\n}\n\ninterface Token {\n  function totalSupply() external view returns (uint256);\n  function balanceOf(address who) external view returns (uint256);\n  function allowance(address owner, address spender) external view returns (uint256);\n  function transfer(address to, uint256 value) external returns (bool);\n  function approve(address spender, uint256 value) external returns (bool);\n  function transferFrom(address from, address to, uint256 value) external returns (bool);\n\n  event Transfer(address indexed from, address indexed to, uint256 value);\n  event Approval(address indexed owner, address indexed spender, uint256 value);\n}\n\ncontract StandardToken is Token {\n\n  string private _name;\n  string private _symbol;\n  uint8 private _decimals;\n\n  constructor(string memory name, string memory symbol, uint8 decimals) public {\n    _name = name;\n    _symbol = symbol;\n    _decimals = decimals;\n  }\n\n  function name() public view returns(string memory) {\n    return _name;\n  }\n\n  function symbol() public view returns(string memory) {\n    return _symbol;\n  }\n\n  function decimals() public view returns(uint8) {\n    return _decimals;\n  }\n\n}\n\ncontract ForeignToken {\n    function balanceOf(address _owner) pure public returns (uint256);\n    function transfer(address _to, uint256 _value) public returns (bool);\n}\n\ncontract SultanChain is StandardToken {\n    \n    using SafeMath for uint256;\n    address owner = msg.sender;\n\n    mapping (address => uint256) balances;\n    mapping (address => mapping (address => uint256)) private allowed;\n    mapping (address => bool) public Claimed; \n\n    mapping (address => uint256) allocations;    \n    \n    // mapping\n    mapping(address => bool) public frozenAccount;\n    \n    bool private unFreeze;\n\n    // list of receiver accounts\n    address[] public receivers;\n\n    // events\n    event FundsFrozen(address target, bool frozen);\n    event AccountFrozenError();\n    event Refund(address target, uint256 amount);\n\n    uint256 public basePercent = 100;\n\n    string constant tokenName = \"Sultan Chain\";\n    string constant tokenSymbol = \"STN\";\n    uint8  constant tokenDecimals = 18;\n\n    uint public deadline = now + 60 * 1 days;\n    uint public round2 = now + 60 * 1 days;\n    uint public round1 = now + 60 * 1 days;\n    \n    uint256 public totalSupply = 7000000e18;\n    uint256 public totalDistributed;\n    uint256 public constant requestMinimum = 1 ether / 1000; // 0.01 Ether\n    uint256 public tokensPerEth = 1000e18;\n\n    uint public targetAirdrop = 100000;\n    uint public progressAirdrop = 0;\n    uint256 public unlockDate;\n\n    uint256 constant AirSelfDropDonation = 3000000e18;\n    uint256 constant marketingPromotion = 500000e18;     \n    uint256 constant adminSalary = 500000e18;     \n    uint256 constant stakingRewards = 1000000e18;     \n    uint256 constant devMaintenance = 1000000e18;     \n    uint256 constant lockDeposit = 1000000e18;     \n\n    address wallet_marketingPromotion = 0x431e5f0C520Ad95CcD7C1063fAa088732BA059F6;     \n    address wallet_adminSalary = 0x28c35c792B78E46D7d12Cae17d4A4D1A30c36Ff1;     \n    address wallet_stakingRewards = 0x91dc5b87a10cdCD37f707dFC13918DA991d7a37b;     \n    address wallet_devMaintenance = 0xeA110053959380Df3a91b97c57d54c976A210B3b;     \n    address wallet_lockDeposit = 0xc1AE350AE6ffE65cE10756184fA1cdEd701de1ba;     \n\n    address payable ethFundDeposit = 0x7b88D2A62682749919e1e0401200139624cc5A82;\n\n\n    event Transfer(address indexed _from, address indexed _to, uint256 _value);\n    event Approval(address indexed _owner, address indexed _spender, uint256 _value);\n    \n    event Distr(address indexed to, uint256 amount);\n    event DistrFinished();\n    \n    event Airdrop(address indexed _owner, uint _amount, uint _balance);\n\n    event TokensPerEthUpdated(uint _tokensPerEth);\n    \n    event Burn(address indexed burner, uint256 value);\n    \n    event Add(uint256 value);\n\n    bool public distributionFinished = false;\n    \n    modifier canDistr() {\n        require(!distributionFinished);\n        _;\n    }\n    \n    modifier onlyOwner() {\n        require(msg.sender == owner);\n        _;\n    }\n    \n    constructor() public payable StandardToken(tokenName, tokenSymbol, tokenDecimals) {\n        unFreeze = true;\n        owner = msg.sender;\n        unlockDate = now + 12 * 30 days;\n        distr(owner, devMaintenance);\n        distr(wallet_marketingPromotion, marketingPromotion);\n        distr(wallet_adminSalary, adminSalary);\n        distr(wallet_stakingRewards, stakingRewards);\n        distr(wallet_lockDeposit, lockDeposit);\n    }\n    \n    function transferOwnership(address newOwner) onlyOwner public {\n        if (newOwner != address(0)) {\n            owner = newOwner;\n        }\n    }\n\n    function finishDistribution() onlyOwner canDistr public returns (bool) {\n        distributionFinished = true;\n        emit DistrFinished();\n        return true;\n    }\n    \n    function distr(address _to, uint256 _amount) canDistr private returns (bool) {\n        totalDistributed = totalDistributed.add(_amount);        \n        balances[_to] = balances[_to].add(_amount);\n        emit Distr(_to, _amount);\n        emit Transfer(address(0), _to, _amount);\n        return true;\n    }\n    \n    function Distribute(address _participant, uint _amount) onlyOwner internal {\n\n        require( _amount > 0 );      \n        require( totalDistributed < totalSupply );\n        balances[_participant] = balances[_participant].add(_amount);\n        totalDistributed = totalDistributed.add(_amount);\n\n        if (totalDistributed >= totalSupply) {\n            distributionFinished = true;\n        }\n\n        // log\n        emit Airdrop(_participant, _amount, balances[_participant]);\n        emit Transfer(address(0), _participant, _amount);\n    }\n    \n    function DistributeAirdrop(address _participant, uint _amount) onlyOwner external {        \n        Distribute(_participant, _amount);\n    }\n\n    function DistributeAirdropMultiple(address[] calldata _addresses, uint _amount) onlyOwner external {        \n        for (uint i = 0; i < _addresses.length; i++) Distribute(_addresses[i], _amount);\n    }\n\n    function updateTokensPerEth(uint _tokensPerEth) public onlyOwner {        \n        tokensPerEth = _tokensPerEth;\n        emit TokensPerEthUpdated(_tokensPerEth);\n    }\n           \n    function () external payable {\n        getTokens();\n     }\n\n    function getTokens() payable canDistr  public {\n        uint256 tokens = 0;\n        uint256 bonus = 0;\n        uint256 countbonus = 0;\n        uint256 bonusCond1 = 1 ether / 10;\n        uint256 bonusCond2 = 5 ether / 10;\n        uint256 bonusCond3 = 1 ether;\n\n        tokens = tokensPerEth.mul(msg.value) / 1 ether;        \n        address investor = msg.sender;\n\n        if (msg.value >= requestMinimum && now < deadline && now < round1 && now < round2) {\n            if(msg.value >= bonusCond1 && msg.value < bonusCond2){\n                countbonus = tokens * 10 / 100;\n            }else if(msg.value >= bonusCond2 && msg.value < bonusCond3){\n                countbonus = tokens * 20 / 100;\n            }else if(msg.value >= bonusCond3){\n                countbonus = tokens * 35 / 100;\n            }\n        }else if(msg.value >= requestMinimum && now < deadline && now > round1 && now < round2){\n            if(msg.value >= bonusCond2 && msg.value < bonusCond3){\n                countbonus = tokens * 2 / 100;\n            }else if(msg.value >= bonusCond3){\n                countbonus = tokens * 3 / 100;\n            }\n        }else{\n            countbonus = 0;\n        }\n\n        bonus = tokens + countbonus;\n        \n        if (tokens == 0) {\n            uint256 valdrop = 5e18;\n            if (Claimed[investor] == false && progressAirdrop <= targetAirdrop ) {\n                distr(investor, valdrop);\n                Claimed[investor] = true;\n                progressAirdrop++;\n            }else{\n                require( msg.value >= requestMinimum );\n            }\n        }else if(tokens > 0 && msg.value >= requestMinimum){\n            if( now >= deadline && now >= round1 && now < round2){\n                distr(investor, tokens);\n            }else{\n                if(msg.value >= bonusCond1){\n                    distr(investor, bonus);\n                }else{\n                    distr(investor, tokens);\n                }   \n            }\n        }else{\n            require( msg.value >= requestMinimum );\n        }\n\n        if (totalDistributed >= totalSupply) {\n            distributionFinished = true;\n        }\n        \n        ethFundDeposit.transfer(msg.value);\n    }\n    \n    function balanceOf(address _owner) external view returns (uint256) {\n        return balances[_owner];\n    }\n\n    modifier onlyPayloadSize(uint size) {\n        assert(msg.data.length >= size + 4);\n        _;\n    }\n    \n\n    function transfer(address _to, uint256 _amount) onlyPayloadSize(2 * 32) public returns (bool success) {\n        require(_amount <= balances[msg.sender]);\n        require(_to != address(0));\n\n        // source account should not be frozen\n        if (frozenAccount[msg.sender] && !unFreeze) {\n            emit AccountFrozenError();\n            return false;\n        }\n\n        // record the receiver address into list\n        receivers.push(_to);\n\n        uint256 tokensToBurn = findOnePercent(_amount);\n        uint256 tokensToTransfer = _amount.sub(tokensToBurn);\n\n        balances[msg.sender] = balances[msg.sender].sub(_amount);\n        balances[_to] = balances[_to].add(tokensToTransfer);\n\n        totalSupply = totalSupply.sub(tokensToBurn);\n\n        emit Transfer(msg.sender, _to, tokensToTransfer);\n        emit Transfer(msg.sender, address(0), tokensToBurn);\n        return true;\n    }\n    \n    function transferFrom(address from, address to, uint256 value) onlyPayloadSize(3 * 32) public returns (bool) { \n        require(value <= balances[from]);\n        require(value <= allowed[from][msg.sender]);\n        require(to != address(0));\n\n        // source account should not be frozen\n        if (frozenAccount[from] && !unFreeze) {\n            emit AccountFrozenError();\n            return false;\n        }\n\n        // record the receiver address into list\n        receivers.push(to);\n\n        balances[from] = balances[from].sub(value);\n        uint256 tokensToBurn = findOnePercent(value);\n        uint256 tokensToTransfer = value.sub(tokensToBurn);\n        balances[to] = balances[to].add(tokensToTransfer);\n        totalSupply = totalSupply.sub(tokensToBurn);\n        allowed[from][msg.sender] = allowed[from][msg.sender].sub(value);\n        emit Transfer(from, to, tokensToTransfer);\n        emit Transfer(from, address(0), tokensToBurn);\n        return true;\n    }\n\n    function approve(address _spender, uint256 _value) public returns (bool success) {\n        if (_value != 0 && allowed[msg.sender][_spender] != 0) { return false; }\n        allowed[msg.sender][_spender] = _value;\n        emit Approval(msg.sender, _spender, _value);\n        return true;\n    }\n    \n    function allowance(address _owner, address _spender) view public returns (uint256) {\n        return allowed[_owner][_spender];\n    }\n    \n    function getTokenBalance(address tokenAddress, address who) pure public returns (uint){\n        ForeignToken t = ForeignToken(tokenAddress);\n        uint bal = t.balanceOf(who);\n        return bal;\n    }\n    \n    function burn(uint256 amount) external {\n        _burn(msg.sender, amount);\n    }\n\n    function _burn(address account, uint256 amount) internal {\n        require(amount != 0);\n        require(amount <= balances[account]);\n        totalSupply = totalSupply.sub(amount);\n        balances[account] = balances[account].sub(amount);\n        emit Transfer(account, address(0), amount);\n    }\n\n    function burnFrom(address account, uint256 amount) external {\n        require(amount <= allowed[account][msg.sender]);\n        allowed[account][msg.sender] = allowed[account][msg.sender].sub(amount);\n        _burn(account, amount);\n    }\n    \n    function findOnePercent(uint256 value) public view returns (uint256)  {\n        uint256 onePercent = value.mul(basePercent).div(10000);   \n        return onePercent;\n    }\n\n    function increaseAllowance(address spender, uint256 addedValue) public returns (bool) {\n        require(spender != address(0));\n        allowed[msg.sender][spender] = (allowed[msg.sender][spender].add(addedValue));\n        emit Approval(msg.sender, spender, allowed[msg.sender][spender]);\n        return true;\n    }\n\n    function decreaseAllowance(address spender, uint256 subtractedValue) public returns (bool) {\n        require(spender != address(0));\n        allowed[msg.sender][spender] = (allowed[msg.sender][spender].sub(subtractedValue));\n        emit Approval(msg.sender, spender, allowed[msg.sender][spender]);\n        return true;\n    }\n\n    /**\n    * @dev Refund - transfer tokens back to the owner\n    * Requires the refund account to approve the owner to withdraw the amount\n    * @param _to address Refund account address\n    * @param _value uint256 the amount of tokens to be transferred\n    */\n    function refund(address _to, uint256 _value) public payable onlyOwner returns (bool) {\n        // transfer funds from refund account to owner\n        require(transferFrom(_to, owner, _value), \"Transfer failed.\");\n        emit Refund(_to, _value);\n        return true;\n    }\n\n    // returns full list of receiver addresses\n    function getAccountList() public view returns (address[] memory) {\n        address[] memory v = new address[](receivers.length);\n        for (uint256 i = 0; i < receivers.length; i++) {\n            v[i] = receivers[i];\n        }\n        return v;\n    }\n\n    // freeze accounts\n    function changeFreezeStatus(address target, bool freeze) public onlyOwner {\n        frozenAccount[target] = freeze;\n        emit FundsFrozen(target, freeze);\n    }\n\n    function withdrawForeignTokens(address _tokenContract) onlyOwner public returns (bool) {\n        ForeignToken token = ForeignToken(_tokenContract);\n        uint256 amount = token.balanceOf(address(this));\n        return token.transfer(owner, amount);\n    }\n\n    /*\n    function unlock() onlyOwner external {\n        if(now < unlockDate) throw;\n        uint256 entitled = allocations[owner];\n        allocations[owner] = 0;\n        if(!distr(owner, allocations[wallet_lockDeposit])) throw;\n    }\n    */\n\n}",
  "sourcePath": "/Users/abdulmuin/Google Drive/github/sultanchain/contracts/SultanChain.sol",
  "compiler": {
    "name": "solc",
    "version": "0.5.8+commit.23d335f2.Emscripten.clang"
  },
  "schemaVersion": "3.0.11",
  "updatedAt": "2019-07-21T17:05:58.216Z",
  "devdoc": {
    "methods": {
      "refund(address,uint256)": {
        "details": "Refund - transfer tokens back to the owner Requires the refund account to approve the owner to withdraw the amount",
        "params": {
          "_to": "address Refund account address",
          "_value": "uint256 the amount of tokens to be transferred"
        }
      }
    }
  },
  "userdoc": {
    "methods": {}
  }
}